{
  "abi": [
    {
      "inputs": [],
      "stateMutability": "nonpayable",
      "type": "constructor"
    },
    {
      "anonymous": false,
      "inputs": [
        {
          "indexed": true,
          "internalType": "uint256",
          "name": "itemId",
          "type": "uint256"
        },
        {
          "indexed": true,
          "internalType": "uint256",
          "name": "tokenId",
          "type": "uint256"
        },
        {
          "indexed": false,
          "internalType": "uint256",
          "name": "price",
          "type": "uint256"
        },
        {
          "indexed": false,
          "internalType": "uint256",
          "name": "amount",
          "type": "uint256"
        },
        {
          "indexed": true,
          "internalType": "address",
          "name": "nftContract",
          "type": "address"
        },
        {
          "indexed": false,
          "internalType": "address",
          "name": "seller",
          "type": "address"
        }
      ],
      "name": "MarketItemCreated",
      "type": "event"
    },
    {
      "anonymous": false,
      "inputs": [
        {
          "indexed": true,
          "internalType": "uint256",
          "name": "itemId",
          "type": "uint256"
        }
      ],
      "name": "MarketItemSold",
      "type": "event"
    },
    {
      "inputs": [
        {
          "internalType": "address",
          "name": "nftContract",
          "type": "address"
        },
        {
          "internalType": "uint256",
          "name": "tokenId",
          "type": "uint256"
        },
        {
          "internalType": "uint256",
          "name": "price",
          "type": "uint256"
        },
        {
          "internalType": "uint256",
          "name": "amount",
          "type": "uint256"
        }
      ],
      "name": "createMarketItem",
      "outputs": [],
      "stateMutability": "payable",
      "type": "function"
    },
    {
      "inputs": [
        {
          "internalType": "address",
          "name": "nftContract",
          "type": "address"
        },
        {
          "internalType": "uint256",
          "name": "itemId",
          "type": "uint256"
        },
        {
          "internalType": "uint256",
          "name": "amountBought",
          "type": "uint256"
        }
      ],
      "name": "createMarketSale",
      "outputs": [],
      "stateMutability": "payable",
      "type": "function"
    },
    {
      "inputs": [],
      "name": "fetchMarketItems",
      "outputs": [
        {
          "components": [
            {
              "internalType": "uint256",
              "name": "itemId",
              "type": "uint256"
            },
            {
              "internalType": "uint256",
              "name": "tokenId",
              "type": "uint256"
            },
            {
              "internalType": "uint256",
              "name": "price",
              "type": "uint256"
            },
            {
              "internalType": "uint256",
              "name": "amount",
              "type": "uint256"
            },
            {
              "internalType": "address",
              "name": "nftContract",
              "type": "address"
            },
            {
              "internalType": "address payable",
              "name": "seller",
              "type": "address"
            }
          ],
          "internalType": "struct marketPlaceBoilerPlate.MarketItem[]",
          "name": "",
          "type": "tuple[]"
        }
      ],
      "stateMutability": "view",
      "type": "function"
    },
    {
      "inputs": [
        {
          "internalType": "address",
          "name": "operator",
          "type": "address"
        },
        {
          "internalType": "address",
          "name": "from",
          "type": "address"
        },
        {
          "internalType": "uint256[]",
          "name": "ids",
          "type": "uint256[]"
        },
        {
          "internalType": "uint256[]",
          "name": "values",
          "type": "uint256[]"
        },
        {
          "internalType": "bytes",
          "name": "data",
          "type": "bytes"
        }
      ],
      "name": "onERC1155BatchReceived",
      "outputs": [
        {
          "internalType": "bytes4",
          "name": "",
          "type": "bytes4"
        }
      ],
      "stateMutability": "pure",
      "type": "function"
    },
    {
      "inputs": [
        {
          "internalType": "address",
          "name": "operator",
          "type": "address"
        },
        {
          "internalType": "address",
          "name": "from",
          "type": "address"
        },
        {
          "internalType": "uint256",
          "name": "id",
          "type": "uint256"
        },
        {
          "internalType": "uint256",
          "name": "value",
          "type": "uint256"
        },
        {
          "internalType": "bytes",
          "name": "data",
          "type": "bytes"
        }
      ],
      "name": "onERC1155Received",
      "outputs": [
        {
          "internalType": "bytes4",
          "name": "",
          "type": "bytes4"
        }
      ],
      "stateMutability": "pure",
      "type": "function"
    },
    {
      "inputs": [],
      "name": "owner",
      "outputs": [
        {
          "internalType": "address",
          "name": "",
          "type": "address"
        }
      ],
      "stateMutability": "view",
      "type": "function"
    },
    {
      "inputs": [
        {
          "internalType": "bytes4",
          "name": "interfaceId",
          "type": "bytes4"
        }
      ],
      "name": "supportsInterface",
      "outputs": [
        {
          "internalType": "bool",
          "name": "",
          "type": "bool"
        }
      ],
      "stateMutability": "pure",
      "type": "function"
    }
  ],
  "bytecode": "608060405234801561001057600080fd5b5060016000908155600380546001600160a01b03191633179055610cbd90819061003a90396000f3fe6080604052600436106100705760003560e01c8063599ba2341161004e578063599ba234146100e15780638da5cb5b146100f4578063bc197c811461012c578063f23a6e611461016057600080fd5b806301ffc9a7146100755780630f08efe0146100aa57806321cf91ac146100cc575b600080fd5b34801561008157600080fd5b506100956100903660046108b6565b61018d565b60405190151581526020015b60405180910390f35b3480156100b657600080fd5b506100bf6101c4565b6040516100a191906108e7565b6100df6100da36600461098a565b610376565b005b6100df6100ef3660046109bd565b61062f565b34801561010057600080fd5b50600354610114906001600160a01b031681565b6040516001600160a01b0390911681526020016100a1565b34801561013857600080fd5b50610147610070366004610a84565b6040516001600160e01b031990911681526020016100a1565b34801561016c57600080fd5b5061014761017b366004610b3f565b63f23a6e6160e01b9695505050505050565b60006001600160e01b031982166301ffc9a760e01b14806101be57506001600160e01b03198216630271189760e51b145b92915050565b606060006101d160015490565b905060006101de60025490565b6001546101eb9190610bcd565b90506000808267ffffffffffffffff81111561020957610209610be0565b60405190808252806020026020018201604052801561028557816020015b6102726040518060c001604052806000815260200160008152602001600081526020016000815260200160006001600160a01b0316815260200160006001600160a01b031681525090565b8152602001906001900390816102275790505b50905060005b8481101561036d5760006004816102a3846001610bf6565b815260200190815260200160002060030154111561035b5760006102c8826001610bf6565b600081815260046020818152604092839020835160c0810185528154815260018201549281019290925260028101549382019390935260038301546060820152908201546001600160a01b03908116608083015260058301541660a08201528551929350909185908790811061034057610340610c09565b6020908102919091010152610356600186610bf6565b945050505b8061036581610c1f565b91505061028b565b50949350505050565b6002600054036103cd5760405162461bcd60e51b815260206004820152601f60248201527f5265656e7472616e637947756172643a207265656e7472616e742063616c6c0060448201526064015b60405180910390fd5b600260008181558381526004602052604081209182015460018301546003909301549092918190036104415760405162461bcd60e51b815260206004820152601e60248201527f546869732053616c652068617320616c726564792066696e6e6973686564000060448201526064016103c4565b6000841180156104515750808411155b6104965760405162461bcd60e51b8152602060048201526016602482015275125b98dbdc9c9958dd081d1bdad95b88185b5bdd5b9d60521b60448201526064016103c4565b6104a08385610c38565b3414610516576040805162461bcd60e51b81526020600482015260248101919091527f506c65617365207375626d6974207468652061736b696e67207072696365206960448201527f6e206f7264657220746f20636f6d706c6574652074686520707572636861736560648201526084016103c4565b60405185907f5edde87e7efe9511fd280717315e9a4c5f46a6a84becfc74084b59e48154084490600090a26000858152600460205260408082206005015490516001600160a01b03909116913480156108fc02929091818181858888f19350505050158015610589573d6000803e3d6000fd5b50604051637921219560e11b81526001600160a01b0387169063f242432a906105bc903090339087908a90600401610c4f565b600060405180830381600087803b1580156105d657600080fd5b505af11580156105ea573d6000803e3d6000fd5b505050506105fc600280546001019055565b6000858152600460205260408120600301805486929061061d908490610bcd565b90915550506001600055505050505050565b6002600054036106815760405162461bcd60e51b815260206004820152601f60248201527f5265656e7472616e637947756172643a207265656e7472616e742063616c6c0060448201526064016103c4565b6002600055816106d35760405162461bcd60e51b815260206004820152601c60248201527f5072696365206d7573742062652067726561746572207468616e20300000000060448201526064016103c4565b600081116107235760405162461bcd60e51b815260206004820152601d60248201527f416d6f756e74206d7573742062652067726561746572207468616e203000000060448201526064016103c4565b610731600180546001019055565b600061073c60015490565b90506040518060c00160405280828152602001858152602001848152602001838152602001866001600160a01b031681526020016107773390565b6001600160a01b039081169091526000838152600460208181526040928390208551815590850151600182015591840151600283015560608401516003830155608084015190820180549184166001600160a01b031992831617905560a090930151600590910180549183169190931617909155851663f242432a6107f93390565b3087866040518563ffffffff1660e01b815260040161081b9493929190610c4f565b600060405180830381600087803b15801561083557600080fd5b505af1158015610849573d6000803e3d6000fd5b50505050846001600160a01b031684827fa037d72566b549c734f9947c227dfb2ea0fdc56acd33a733432189e1db1b14d386866108833390565b6040805193845260208401929092526001600160a01b03169082015260600160405180910390a450506001600055505050565b6000602082840312156108c857600080fd5b81356001600160e01b0319811681146108e057600080fd5b9392505050565b602080825282518282018190526000919060409081850190868401855b828110156109615781518051855286810151878601528581015186860152606080820151908601526080808201516001600160a01b039081169187019190915260a091820151169085015260c09093019290850190600101610904565b5091979650505050505050565b80356001600160a01b038116811461098557600080fd5b919050565b60008060006060848603121561099f57600080fd5b6109a88461096e565b95602085013595506040909401359392505050565b600080600080608085870312156109d357600080fd5b6109dc8561096e565b966020860135965060408601359560600135945092505050565b60008083601f840112610a0857600080fd5b50813567ffffffffffffffff811115610a2057600080fd5b6020830191508360208260051b8501011115610a3b57600080fd5b9250929050565b60008083601f840112610a5457600080fd5b50813567ffffffffffffffff811115610a6c57600080fd5b602083019150836020828501011115610a3b57600080fd5b60008060008060008060008060a0898b031215610aa057600080fd5b610aa98961096e565b9750610ab760208a0161096e565b9650604089013567ffffffffffffffff80821115610ad457600080fd5b610ae08c838d016109f6565b909850965060608b0135915080821115610af957600080fd5b610b058c838d016109f6565b909650945060808b0135915080821115610b1e57600080fd5b50610b2b8b828c01610a42565b999c989b5096995094979396929594505050565b60008060008060008060a08789031215610b5857600080fd5b610b618761096e565b9550610b6f6020880161096e565b94506040870135935060608701359250608087013567ffffffffffffffff811115610b9957600080fd5b610ba589828a01610a42565b979a9699509497509295939492505050565b634e487b7160e01b600052601160045260246000fd5b818103818111156101be576101be610bb7565b634e487b7160e01b600052604160045260246000fd5b808201808211156101be576101be610bb7565b634e487b7160e01b600052603260045260246000fd5b600060018201610c3157610c31610bb7565b5060010190565b80820281158282048414176101be576101be610bb7565b6001600160a01b0394851681529290931660208301526040820152606081019190915260a06080820181905260009082015260c0019056fea26469706673582212205863779b382859484ef244a9e9f69a7218053342846251b939aced8ca4dd536b64736f6c63430008110033",
  "bytecodeSha1": "6e8877c97c57c3cab34c3479190e5b24e538f76a",
  "compiler": {
    "evm_version": "istanbul",
    "optimizer": {
      "enabled": true,
      "runs": 200
    },
    "version": "0.8.17+commit.8df45f5f"
  },
  "contractName": "marketPlaceBoilerPlate",
  "language": "Solidity",
  "natspec": {
    "kind": "dev",
    "methods": {
      "onERC1155BatchReceived(address,address,uint256[],uint256[],bytes)": {
        "details": "Handles the receipt of a multiple ERC1155 token types. This function is called at the end of a `safeBatchTransferFrom` after the balances have been updated. To accept the transfer(s), this must return `bytes4(keccak256(\"onERC1155BatchReceived(address,address,uint256[],uint256[],bytes)\"))` (i.e. 0xbc197c81, or its own function selector).",
        "params": {
          "data": "Additional data with no specified format",
          "from": "The address which previously owned the token",
          "ids": "An array containing ids of each token being transferred (order and length must match values array)",
          "operator": "The address which initiated the batch transfer (i.e. msg.sender)",
          "values": "An array containing amounts of each token being transferred (order and length must match ids array)"
        },
        "returns": {
          "_0": "`bytes4(keccak256(\"onERC1155BatchReceived(address,address,uint256[],uint256[],bytes)\"))` if transfer is allowed"
        }
      },
      "onERC1155Received(address,address,uint256,uint256,bytes)": {
        "details": "Handles the receipt of a single ERC1155 token type. This function is called at the end of a `safeTransferFrom` after the balance has been updated. To accept the transfer, this must return `bytes4(keccak256(\"onERC1155Received(address,address,uint256,uint256,bytes)\"))` (i.e. 0xf23a6e61, or its own function selector).",
        "params": {
          "data": "Additional data with no specified format",
          "from": "The address which previously owned the token",
          "id": "The ID of the token being transferred",
          "operator": "The address which initiated the transfer (i.e. msg.sender)",
          "value": "The amount of tokens being transferred"
        },
        "returns": {
          "_0": "`bytes4(keccak256(\"onERC1155Received(address,address,uint256,uint256,bytes)\"))` if transfer is allowed"
        }
      },
      "supportsInterface(bytes4)": {
        "details": "Returns true if this contract implements the interface defined by `interfaceId`. See the corresponding https://eips.ethereum.org/EIPS/eip-165#how-interfaces-are-identified[EIP section] to learn more about how these ids are created. This function call must use less than 30 000 gas."
      }
    },
    "version": 1
  },
  "opcodes": "PUSH1 0x80 PUSH1 0x40 MSTORE PUSH1 0x4 CALLDATASIZE LT PUSH2 0x70 JUMPI PUSH1 0x0 CALLDATALOAD PUSH1 0xE0 SHR DUP1 PUSH4 0x599BA234 GT PUSH2 0x4E JUMPI DUP1 PUSH4 0x599BA234 EQ PUSH2 0xE1 JUMPI DUP1 PUSH4 0x8DA5CB5B EQ PUSH2 0xF4 JUMPI DUP1 PUSH4 0xBC197C81 EQ PUSH2 0x12C JUMPI DUP1 PUSH4 0xF23A6E61 EQ PUSH2 0x160 JUMPI PUSH1 0x0 DUP1 REVERT JUMPDEST DUP1 PUSH4 0x1FFC9A7 EQ PUSH2 0x75 JUMPI DUP1 PUSH4 0xF08EFE0 EQ PUSH2 0xAA JUMPI DUP1 PUSH4 0x21CF91AC EQ PUSH2 0xCC JUMPI JUMPDEST PUSH1 0x0 DUP1 REVERT JUMPDEST CALLVALUE DUP1 ISZERO PUSH2 0x81 JUMPI PUSH1 0x0 DUP1 REVERT JUMPDEST POP PUSH2 0x95 PUSH2 0x90 CALLDATASIZE PUSH1 0x4 PUSH2 0x8B6 JUMP JUMPDEST PUSH2 0x18D JUMP JUMPDEST PUSH1 0x40 MLOAD SWAP1 ISZERO ISZERO DUP2 MSTORE PUSH1 0x20 ADD JUMPDEST PUSH1 0x40 MLOAD DUP1 SWAP2 SUB SWAP1 RETURN JUMPDEST CALLVALUE DUP1 ISZERO PUSH2 0xB6 JUMPI PUSH1 0x0 DUP1 REVERT JUMPDEST POP PUSH2 0xBF PUSH2 0x1C4 JUMP JUMPDEST PUSH1 0x40 MLOAD PUSH2 0xA1 SWAP2 SWAP1 PUSH2 0x8E7 JUMP JUMPDEST PUSH2 0xDF PUSH2 0xDA CALLDATASIZE PUSH1 0x4 PUSH2 0x98A JUMP JUMPDEST PUSH2 0x376 JUMP JUMPDEST STOP JUMPDEST PUSH2 0xDF PUSH2 0xEF CALLDATASIZE PUSH1 0x4 PUSH2 0x9BD JUMP JUMPDEST PUSH2 0x62F JUMP JUMPDEST CALLVALUE DUP1 ISZERO PUSH2 0x100 JUMPI PUSH1 0x0 DUP1 REVERT JUMPDEST POP PUSH1 0x3 SLOAD PUSH2 0x114 SWAP1 PUSH1 0x1 PUSH1 0x1 PUSH1 0xA0 SHL SUB AND DUP2 JUMP JUMPDEST PUSH1 0x40 MLOAD PUSH1 0x1 PUSH1 0x1 PUSH1 0xA0 SHL SUB SWAP1 SWAP2 AND DUP2 MSTORE PUSH1 0x20 ADD PUSH2 0xA1 JUMP JUMPDEST CALLVALUE DUP1 ISZERO PUSH2 0x138 JUMPI PUSH1 0x0 DUP1 REVERT JUMPDEST POP PUSH2 0x147 PUSH2 0x70 CALLDATASIZE PUSH1 0x4 PUSH2 0xA84 JUMP JUMPDEST PUSH1 0x40 MLOAD PUSH1 0x1 PUSH1 0x1 PUSH1 0xE0 SHL SUB NOT SWAP1 SWAP2 AND DUP2 MSTORE PUSH1 0x20 ADD PUSH2 0xA1 JUMP JUMPDEST CALLVALUE DUP1 ISZERO PUSH2 0x16C JUMPI PUSH1 0x0 DUP1 REVERT JUMPDEST POP PUSH2 0x147 PUSH2 0x17B CALLDATASIZE PUSH1 0x4 PUSH2 0xB3F JUMP JUMPDEST PUSH4 0xF23A6E61 PUSH1 0xE0 SHL SWAP7 SWAP6 POP POP POP POP POP POP JUMP JUMPDEST PUSH1 0x0 PUSH1 0x1 PUSH1 0x1 PUSH1 0xE0 SHL SUB NOT DUP3 AND PUSH4 0x1FFC9A7 PUSH1 0xE0 SHL EQ DUP1 PUSH2 0x1BE JUMPI POP PUSH1 0x1 PUSH1 0x1 PUSH1 0xE0 SHL SUB NOT DUP3 AND PUSH4 0x2711897 PUSH1 0xE5 SHL EQ JUMPDEST SWAP3 SWAP2 POP POP JUMP JUMPDEST PUSH1 0x60 PUSH1 0x0 PUSH2 0x1D1 PUSH1 0x1 SLOAD SWAP1 JUMP JUMPDEST SWAP1 POP PUSH1 0x0 PUSH2 0x1DE PUSH1 0x2 SLOAD SWAP1 JUMP JUMPDEST PUSH1 0x1 SLOAD PUSH2 0x1EB SWAP2 SWAP1 PUSH2 0xBCD JUMP JUMPDEST SWAP1 POP PUSH1 0x0 DUP1 DUP3 PUSH8 0xFFFFFFFFFFFFFFFF DUP2 GT ISZERO PUSH2 0x209 JUMPI PUSH2 0x209 PUSH2 0xBE0 JUMP JUMPDEST PUSH1 0x40 MLOAD SWAP1 DUP1 DUP3 MSTORE DUP1 PUSH1 0x20 MUL PUSH1 0x20 ADD DUP3 ADD PUSH1 0x40 MSTORE DUP1 ISZERO PUSH2 0x285 JUMPI DUP2 PUSH1 0x20 ADD JUMPDEST PUSH2 0x272 PUSH1 0x40 MLOAD DUP1 PUSH1 0xC0 ADD PUSH1 0x40 MSTORE DUP1 PUSH1 0x0 DUP2 MSTORE PUSH1 0x20 ADD PUSH1 0x0 DUP2 MSTORE PUSH1 0x20 ADD PUSH1 0x0 DUP2 MSTORE PUSH1 0x20 ADD PUSH1 0x0 DUP2 MSTORE PUSH1 0x20 ADD PUSH1 0x0 PUSH1 0x1 PUSH1 0x1 PUSH1 0xA0 SHL SUB AND DUP2 MSTORE PUSH1 0x20 ADD PUSH1 0x0 PUSH1 0x1 PUSH1 0x1 PUSH1 0xA0 SHL SUB AND DUP2 MSTORE POP SWAP1 JUMP JUMPDEST DUP2 MSTORE PUSH1 0x20 ADD SWAP1 PUSH1 0x1 SWAP1 SUB SWAP1 DUP2 PUSH2 0x227 JUMPI SWAP1 POP JUMPDEST POP SWAP1 POP PUSH1 0x0 JUMPDEST DUP5 DUP2 LT ISZERO PUSH2 0x36D JUMPI PUSH1 0x0 PUSH1 0x4 DUP2 PUSH2 0x2A3 DUP5 PUSH1 0x1 PUSH2 0xBF6 JUMP JUMPDEST DUP2 MSTORE PUSH1 0x20 ADD SWAP1 DUP2 MSTORE PUSH1 0x20 ADD PUSH1 0x0 KECCAK256 PUSH1 0x3 ADD SLOAD GT ISZERO PUSH2 0x35B JUMPI PUSH1 0x0 PUSH2 0x2C8 DUP3 PUSH1 0x1 PUSH2 0xBF6 JUMP JUMPDEST PUSH1 0x0 DUP2 DUP2 MSTORE PUSH1 0x4 PUSH1 0x20 DUP2 DUP2 MSTORE PUSH1 0x40 SWAP3 DUP4 SWAP1 KECCAK256 DUP4 MLOAD PUSH1 0xC0 DUP2 ADD DUP6 MSTORE DUP2 SLOAD DUP2 MSTORE PUSH1 0x1 DUP3 ADD SLOAD SWAP3 DUP2 ADD SWAP3 SWAP1 SWAP3 MSTORE PUSH1 0x2 DUP2 ADD SLOAD SWAP4 DUP3 ADD SWAP4 SWAP1 SWAP4 MSTORE PUSH1 0x3 DUP4 ADD SLOAD PUSH1 0x60 DUP3 ADD MSTORE SWAP1 DUP3 ADD SLOAD PUSH1 0x1 PUSH1 0x1 PUSH1 0xA0 SHL SUB SWAP1 DUP2 AND PUSH1 0x80 DUP4 ADD MSTORE PUSH1 0x5 DUP4 ADD SLOAD AND PUSH1 0xA0 DUP3 ADD MSTORE DUP6 MLOAD SWAP3 SWAP4 POP SWAP1 SWAP2 DUP6 SWAP1 DUP8 SWAP1 DUP2 LT PUSH2 0x340 JUMPI PUSH2 0x340 PUSH2 0xC09 JUMP JUMPDEST PUSH1 0x20 SWAP1 DUP2 MUL SWAP2 SWAP1 SWAP2 ADD ADD MSTORE PUSH2 0x356 PUSH1 0x1 DUP7 PUSH2 0xBF6 JUMP JUMPDEST SWAP5 POP POP POP JUMPDEST DUP1 PUSH2 0x365 DUP2 PUSH2 0xC1F JUMP JUMPDEST SWAP2 POP POP PUSH2 0x28B JUMP JUMPDEST POP SWAP5 SWAP4 POP POP POP POP JUMP JUMPDEST PUSH1 0x2 PUSH1 0x0 SLOAD SUB PUSH2 0x3CD JUMPI PUSH1 0x40 MLOAD PUSH3 0x461BCD PUSH1 0xE5 SHL DUP2 MSTORE PUSH1 0x20 PUSH1 0x4 DUP3 ADD MSTORE PUSH1 0x1F PUSH1 0x24 DUP3 ADD MSTORE PUSH32 0x5265656E7472616E637947756172643A207265656E7472616E742063616C6C00 PUSH1 0x44 DUP3 ADD MSTORE PUSH1 0x64 ADD JUMPDEST PUSH1 0x40 MLOAD DUP1 SWAP2 SUB SWAP1 REVERT JUMPDEST PUSH1 0x2 PUSH1 0x0 DUP2 DUP2 SSTORE DUP4 DUP2 MSTORE PUSH1 0x4 PUSH1 0x20 MSTORE PUSH1 0x40 DUP2 KECCAK256 SWAP2 DUP3 ADD SLOAD PUSH1 0x1 DUP4 ADD SLOAD PUSH1 0x3 SWAP1 SWAP4 ADD SLOAD SWAP1 SWAP3 SWAP2 DUP2 SWAP1 SUB PUSH2 0x441 JUMPI PUSH1 0x40 MLOAD PUSH3 0x461BCD PUSH1 0xE5 SHL DUP2 MSTORE PUSH1 0x20 PUSH1 0x4 DUP3 ADD MSTORE PUSH1 0x1E PUSH1 0x24 DUP3 ADD MSTORE PUSH32 0x546869732053616C652068617320616C726564792066696E6E69736865640000 PUSH1 0x44 DUP3 ADD MSTORE PUSH1 0x64 ADD PUSH2 0x3C4 JUMP JUMPDEST PUSH1 0x0 DUP5 GT DUP1 ISZERO PUSH2 0x451 JUMPI POP DUP1 DUP5 GT ISZERO JUMPDEST PUSH2 0x496 JUMPI PUSH1 0x40 MLOAD PUSH3 0x461BCD PUSH1 0xE5 SHL DUP2 MSTORE PUSH1 0x20 PUSH1 0x4 DUP3 ADD MSTORE PUSH1 0x16 PUSH1 0x24 DUP3 ADD MSTORE PUSH22 0x125B98DBDC9C9958DD081D1BDAD95B88185B5BDD5B9D PUSH1 0x52 SHL PUSH1 0x44 DUP3 ADD MSTORE PUSH1 0x64 ADD PUSH2 0x3C4 JUMP JUMPDEST PUSH2 0x4A0 DUP4 DUP6 PUSH2 0xC38 JUMP JUMPDEST CALLVALUE EQ PUSH2 0x516 JUMPI PUSH1 0x40 DUP1 MLOAD PUSH3 0x461BCD PUSH1 0xE5 SHL DUP2 MSTORE PUSH1 0x20 PUSH1 0x4 DUP3 ADD MSTORE PUSH1 0x24 DUP2 ADD SWAP2 SWAP1 SWAP2 MSTORE PUSH32 0x506C65617365207375626D6974207468652061736B696E672070726963652069 PUSH1 0x44 DUP3 ADD MSTORE PUSH32 0x6E206F7264657220746F20636F6D706C65746520746865207075726368617365 PUSH1 0x64 DUP3 ADD MSTORE PUSH1 0x84 ADD PUSH2 0x3C4 JUMP JUMPDEST PUSH1 0x40 MLOAD DUP6 SWAP1 PUSH32 0x5EDDE87E7EFE9511FD280717315E9A4C5F46A6A84BECFC74084B59E481540844 SWAP1 PUSH1 0x0 SWAP1 LOG2 PUSH1 0x0 DUP6 DUP2 MSTORE PUSH1 0x4 PUSH1 0x20 MSTORE PUSH1 0x40 DUP1 DUP3 KECCAK256 PUSH1 0x5 ADD SLOAD SWAP1 MLOAD PUSH1 0x1 PUSH1 0x1 PUSH1 0xA0 SHL SUB SWAP1 SWAP2 AND SWAP2 CALLVALUE DUP1 ISZERO PUSH2 0x8FC MUL SWAP3 SWAP1 SWAP2 DUP2 DUP2 DUP2 DUP6 DUP9 DUP9 CALL SWAP4 POP POP POP POP ISZERO DUP1 ISZERO PUSH2 0x589 JUMPI RETURNDATASIZE PUSH1 0x0 DUP1 RETURNDATACOPY RETURNDATASIZE PUSH1 0x0 REVERT JUMPDEST POP PUSH1 0x40 MLOAD PUSH4 0x79212195 PUSH1 0xE1 SHL DUP2 MSTORE PUSH1 0x1 PUSH1 0x1 PUSH1 0xA0 SHL SUB DUP8 AND SWAP1 PUSH4 0xF242432A SWAP1 PUSH2 0x5BC SWAP1 ADDRESS SWAP1 CALLER SWAP1 DUP8 SWAP1 DUP11 SWAP1 PUSH1 0x4 ADD PUSH2 0xC4F JUMP JUMPDEST PUSH1 0x0 PUSH1 0x40 MLOAD DUP1 DUP4 SUB DUP2 PUSH1 0x0 DUP8 DUP1 EXTCODESIZE ISZERO DUP1 ISZERO PUSH2 0x5D6 JUMPI PUSH1 0x0 DUP1 REVERT JUMPDEST POP GAS CALL ISZERO DUP1 ISZERO PUSH2 0x5EA JUMPI RETURNDATASIZE PUSH1 0x0 DUP1 RETURNDATACOPY RETURNDATASIZE PUSH1 0x0 REVERT JUMPDEST POP POP POP POP PUSH2 0x5FC PUSH1 0x2 DUP1 SLOAD PUSH1 0x1 ADD SWAP1 SSTORE JUMP JUMPDEST PUSH1 0x0 DUP6 DUP2 MSTORE PUSH1 0x4 PUSH1 0x20 MSTORE PUSH1 0x40 DUP2 KECCAK256 PUSH1 0x3 ADD DUP1 SLOAD DUP7 SWAP3 SWAP1 PUSH2 0x61D SWAP1 DUP5 SWAP1 PUSH2 0xBCD JUMP JUMPDEST SWAP1 SWAP2 SSTORE POP POP PUSH1 0x1 PUSH1 0x0 SSTORE POP POP POP POP POP POP JUMP JUMPDEST PUSH1 0x2 PUSH1 0x0 SLOAD SUB PUSH2 0x681 JUMPI PUSH1 0x40 MLOAD PUSH3 0x461BCD PUSH1 0xE5 SHL DUP2 MSTORE PUSH1 0x20 PUSH1 0x4 DUP3 ADD MSTORE PUSH1 0x1F PUSH1 0x24 DUP3 ADD MSTORE PUSH32 0x5265656E7472616E637947756172643A207265656E7472616E742063616C6C00 PUSH1 0x44 DUP3 ADD MSTORE PUSH1 0x64 ADD PUSH2 0x3C4 JUMP JUMPDEST PUSH1 0x2 PUSH1 0x0 SSTORE DUP2 PUSH2 0x6D3 JUMPI PUSH1 0x40 MLOAD PUSH3 0x461BCD PUSH1 0xE5 SHL DUP2 MSTORE PUSH1 0x20 PUSH1 0x4 DUP3 ADD MSTORE PUSH1 0x1C PUSH1 0x24 DUP3 ADD MSTORE PUSH32 0x5072696365206D7573742062652067726561746572207468616E203000000000 PUSH1 0x44 DUP3 ADD MSTORE PUSH1 0x64 ADD PUSH2 0x3C4 JUMP JUMPDEST PUSH1 0x0 DUP2 GT PUSH2 0x723 JUMPI PUSH1 0x40 MLOAD PUSH3 0x461BCD PUSH1 0xE5 SHL DUP2 MSTORE PUSH1 0x20 PUSH1 0x4 DUP3 ADD MSTORE PUSH1 0x1D PUSH1 0x24 DUP3 ADD MSTORE PUSH32 0x416D6F756E74206D7573742062652067726561746572207468616E2030000000 PUSH1 0x44 DUP3 ADD MSTORE PUSH1 0x64 ADD PUSH2 0x3C4 JUMP JUMPDEST PUSH2 0x731 PUSH1 0x1 DUP1 SLOAD PUSH1 0x1 ADD SWAP1 SSTORE JUMP JUMPDEST PUSH1 0x0 PUSH2 0x73C PUSH1 0x1 SLOAD SWAP1 JUMP JUMPDEST SWAP1 POP PUSH1 0x40 MLOAD DUP1 PUSH1 0xC0 ADD PUSH1 0x40 MSTORE DUP1 DUP3 DUP2 MSTORE PUSH1 0x20 ADD DUP6 DUP2 MSTORE PUSH1 0x20 ADD DUP5 DUP2 MSTORE PUSH1 0x20 ADD DUP4 DUP2 MSTORE PUSH1 0x20 ADD DUP7 PUSH1 0x1 PUSH1 0x1 PUSH1 0xA0 SHL SUB AND DUP2 MSTORE PUSH1 0x20 ADD PUSH2 0x777 CALLER SWAP1 JUMP JUMPDEST PUSH1 0x1 PUSH1 0x1 PUSH1 0xA0 SHL SUB SWAP1 DUP2 AND SWAP1 SWAP2 MSTORE PUSH1 0x0 DUP4 DUP2 MSTORE PUSH1 0x4 PUSH1 0x20 DUP2 DUP2 MSTORE PUSH1 0x40 SWAP3 DUP4 SWAP1 KECCAK256 DUP6 MLOAD DUP2 SSTORE SWAP1 DUP6 ADD MLOAD PUSH1 0x1 DUP3 ADD SSTORE SWAP2 DUP5 ADD MLOAD PUSH1 0x2 DUP4 ADD SSTORE PUSH1 0x60 DUP5 ADD MLOAD PUSH1 0x3 DUP4 ADD SSTORE PUSH1 0x80 DUP5 ADD MLOAD SWAP1 DUP3 ADD DUP1 SLOAD SWAP2 DUP5 AND PUSH1 0x1 PUSH1 0x1 PUSH1 0xA0 SHL SUB NOT SWAP3 DUP4 AND OR SWAP1 SSTORE PUSH1 0xA0 SWAP1 SWAP4 ADD MLOAD PUSH1 0x5 SWAP1 SWAP2 ADD DUP1 SLOAD SWAP2 DUP4 AND SWAP2 SWAP1 SWAP4 AND OR SWAP1 SWAP2 SSTORE DUP6 AND PUSH4 0xF242432A PUSH2 0x7F9 CALLER SWAP1 JUMP JUMPDEST ADDRESS DUP8 DUP7 PUSH1 0x40 MLOAD DUP6 PUSH4 0xFFFFFFFF AND PUSH1 0xE0 SHL DUP2 MSTORE PUSH1 0x4 ADD PUSH2 0x81B SWAP5 SWAP4 SWAP3 SWAP2 SWAP1 PUSH2 0xC4F JUMP JUMPDEST PUSH1 0x0 PUSH1 0x40 MLOAD DUP1 DUP4 SUB DUP2 PUSH1 0x0 DUP8 DUP1 EXTCODESIZE ISZERO DUP1 ISZERO PUSH2 0x835 JUMPI PUSH1 0x0 DUP1 REVERT JUMPDEST POP GAS CALL ISZERO DUP1 ISZERO PUSH2 0x849 JUMPI RETURNDATASIZE PUSH1 0x0 DUP1 RETURNDATACOPY RETURNDATASIZE PUSH1 0x0 REVERT JUMPDEST POP POP POP POP DUP5 PUSH1 0x1 PUSH1 0x1 PUSH1 0xA0 SHL SUB AND DUP5 DUP3 PUSH32 0xA037D72566B549C734F9947C227DFB2EA0FDC56ACD33A733432189E1DB1B14D3 DUP7 DUP7 PUSH2 0x883 CALLER SWAP1 JUMP JUMPDEST PUSH1 0x40 DUP1 MLOAD SWAP4 DUP5 MSTORE PUSH1 0x20 DUP5 ADD SWAP3 SWAP1 SWAP3 MSTORE PUSH1 0x1 PUSH1 0x1 PUSH1 0xA0 SHL SUB AND SWAP1 DUP3 ADD MSTORE PUSH1 0x60 ADD PUSH1 0x40 MLOAD DUP1 SWAP2 SUB SWAP1 LOG4 POP POP PUSH1 0x1 PUSH1 0x0 SSTORE POP POP POP JUMP JUMPDEST PUSH1 0x0 PUSH1 0x20 DUP3 DUP5 SUB SLT ISZERO PUSH2 0x8C8 JUMPI PUSH1 0x0 DUP1 REVERT JUMPDEST DUP2 CALLDATALOAD PUSH1 0x1 PUSH1 0x1 PUSH1 0xE0 SHL SUB NOT DUP2 AND DUP2 EQ PUSH2 0x8E0 JUMPI PUSH1 0x0 DUP1 REVERT JUMPDEST SWAP4 SWAP3 POP POP POP JUMP JUMPDEST PUSH1 0x20 DUP1 DUP3 MSTORE DUP3 MLOAD DUP3 DUP3 ADD DUP2 SWAP1 MSTORE PUSH1 0x0 SWAP2 SWAP1 PUSH1 0x40 SWAP1 DUP2 DUP6 ADD SWAP1 DUP7 DUP5 ADD DUP6 JUMPDEST DUP3 DUP2 LT ISZERO PUSH2 0x961 JUMPI DUP2 MLOAD DUP1 MLOAD DUP6 MSTORE DUP7 DUP2 ADD MLOAD DUP8 DUP7 ADD MSTORE DUP6 DUP2 ADD MLOAD DUP7 DUP7 ADD MSTORE PUSH1 0x60 DUP1 DUP3 ADD MLOAD SWAP1 DUP7 ADD MSTORE PUSH1 0x80 DUP1 DUP3 ADD MLOAD PUSH1 0x1 PUSH1 0x1 PUSH1 0xA0 SHL SUB SWAP1 DUP2 AND SWAP2 DUP8 ADD SWAP2 SWAP1 SWAP2 MSTORE PUSH1 0xA0 SWAP2 DUP3 ADD MLOAD AND SWAP1 DUP6 ADD MSTORE PUSH1 0xC0 SWAP1 SWAP4 ADD SWAP3 SWAP1 DUP6 ADD SWAP1 PUSH1 0x1 ADD PUSH2 0x904 JUMP JUMPDEST POP SWAP2 SWAP8 SWAP7 POP POP POP POP POP POP POP JUMP JUMPDEST DUP1 CALLDATALOAD PUSH1 0x1 PUSH1 0x1 PUSH1 0xA0 SHL SUB DUP2 AND DUP2 EQ PUSH2 0x985 JUMPI PUSH1 0x0 DUP1 REVERT JUMPDEST SWAP2 SWAP1 POP JUMP JUMPDEST PUSH1 0x0 DUP1 PUSH1 0x0 PUSH1 0x60 DUP5 DUP7 SUB SLT ISZERO PUSH2 0x99F JUMPI PUSH1 0x0 DUP1 REVERT JUMPDEST PUSH2 0x9A8 DUP5 PUSH2 0x96E JUMP JUMPDEST SWAP6 PUSH1 0x20 DUP6 ADD CALLDATALOAD SWAP6 POP PUSH1 0x40 SWAP1 SWAP5 ADD CALLDATALOAD SWAP4 SWAP3 POP POP POP JUMP JUMPDEST PUSH1 0x0 DUP1 PUSH1 0x0 DUP1 PUSH1 0x80 DUP6 DUP8 SUB SLT ISZERO PUSH2 0x9D3 JUMPI PUSH1 0x0 DUP1 REVERT JUMPDEST PUSH2 0x9DC DUP6 PUSH2 0x96E JUMP JUMPDEST SWAP7 PUSH1 0x20 DUP7 ADD CALLDATALOAD SWAP7 POP PUSH1 0x40 DUP7 ADD CALLDATALOAD SWAP6 PUSH1 0x60 ADD CALLDATALOAD SWAP5 POP SWAP3 POP POP POP JUMP JUMPDEST PUSH1 0x0 DUP1 DUP4 PUSH1 0x1F DUP5 ADD SLT PUSH2 0xA08 JUMPI PUSH1 0x0 DUP1 REVERT JUMPDEST POP DUP2 CALLDATALOAD PUSH8 0xFFFFFFFFFFFFFFFF DUP2 GT ISZERO PUSH2 0xA20 JUMPI PUSH1 0x0 DUP1 REVERT JUMPDEST PUSH1 0x20 DUP4 ADD SWAP2 POP DUP4 PUSH1 0x20 DUP3 PUSH1 0x5 SHL DUP6 ADD ADD GT ISZERO PUSH2 0xA3B JUMPI PUSH1 0x0 DUP1 REVERT JUMPDEST SWAP3 POP SWAP3 SWAP1 POP JUMP JUMPDEST PUSH1 0x0 DUP1 DUP4 PUSH1 0x1F DUP5 ADD SLT PUSH2 0xA54 JUMPI PUSH1 0x0 DUP1 REVERT JUMPDEST POP DUP2 CALLDATALOAD PUSH8 0xFFFFFFFFFFFFFFFF DUP2 GT ISZERO PUSH2 0xA6C JUMPI PUSH1 0x0 DUP1 REVERT JUMPDEST PUSH1 0x20 DUP4 ADD SWAP2 POP DUP4 PUSH1 0x20 DUP3 DUP6 ADD ADD GT ISZERO PUSH2 0xA3B JUMPI PUSH1 0x0 DUP1 REVERT JUMPDEST PUSH1 0x0 DUP1 PUSH1 0x0 DUP1 PUSH1 0x0 DUP1 PUSH1 0x0 DUP1 PUSH1 0xA0 DUP10 DUP12 SUB SLT ISZERO PUSH2 0xAA0 JUMPI PUSH1 0x0 DUP1 REVERT JUMPDEST PUSH2 0xAA9 DUP10 PUSH2 0x96E JUMP JUMPDEST SWAP8 POP PUSH2 0xAB7 PUSH1 0x20 DUP11 ADD PUSH2 0x96E JUMP JUMPDEST SWAP7 POP PUSH1 0x40 DUP10 ADD CALLDATALOAD PUSH8 0xFFFFFFFFFFFFFFFF DUP1 DUP3 GT ISZERO PUSH2 0xAD4 JUMPI PUSH1 0x0 DUP1 REVERT JUMPDEST PUSH2 0xAE0 DUP13 DUP4 DUP14 ADD PUSH2 0x9F6 JUMP JUMPDEST SWAP1 SWAP9 POP SWAP7 POP PUSH1 0x60 DUP12 ADD CALLDATALOAD SWAP2 POP DUP1 DUP3 GT ISZERO PUSH2 0xAF9 JUMPI PUSH1 0x0 DUP1 REVERT JUMPDEST PUSH2 0xB05 DUP13 DUP4 DUP14 ADD PUSH2 0x9F6 JUMP JUMPDEST SWAP1 SWAP7 POP SWAP5 POP PUSH1 0x80 DUP12 ADD CALLDATALOAD SWAP2 POP DUP1 DUP3 GT ISZERO PUSH2 0xB1E JUMPI PUSH1 0x0 DUP1 REVERT JUMPDEST POP PUSH2 0xB2B DUP12 DUP3 DUP13 ADD PUSH2 0xA42 JUMP JUMPDEST SWAP10 SWAP13 SWAP9 SWAP12 POP SWAP7 SWAP10 POP SWAP5 SWAP8 SWAP4 SWAP7 SWAP3 SWAP6 SWAP5 POP POP POP JUMP JUMPDEST PUSH1 0x0 DUP1 PUSH1 0x0 DUP1 PUSH1 0x0 DUP1 PUSH1 0xA0 DUP8 DUP10 SUB SLT ISZERO PUSH2 0xB58 JUMPI PUSH1 0x0 DUP1 REVERT JUMPDEST PUSH2 0xB61 DUP8 PUSH2 0x96E JUMP JUMPDEST SWAP6 POP PUSH2 0xB6F PUSH1 0x20 DUP9 ADD PUSH2 0x96E JUMP JUMPDEST SWAP5 POP PUSH1 0x40 DUP8 ADD CALLDATALOAD SWAP4 POP PUSH1 0x60 DUP8 ADD CALLDATALOAD SWAP3 POP PUSH1 0x80 DUP8 ADD CALLDATALOAD PUSH8 0xFFFFFFFFFFFFFFFF DUP2 GT ISZERO PUSH2 0xB99 JUMPI PUSH1 0x0 DUP1 REVERT JUMPDEST PUSH2 0xBA5 DUP10 DUP3 DUP11 ADD PUSH2 0xA42 JUMP JUMPDEST SWAP8 SWAP11 SWAP7 SWAP10 POP SWAP5 SWAP8 POP SWAP3 SWAP6 SWAP4 SWAP5 SWAP3 POP POP POP JUMP JUMPDEST PUSH4 0x4E487B71 PUSH1 0xE0 SHL PUSH1 0x0 MSTORE PUSH1 0x11 PUSH1 0x4 MSTORE PUSH1 0x24 PUSH1 0x0 REVERT JUMPDEST DUP2 DUP2 SUB DUP2 DUP2 GT ISZERO PUSH2 0x1BE JUMPI PUSH2 0x1BE PUSH2 0xBB7 JUMP JUMPDEST PUSH4 0x4E487B71 PUSH1 0xE0 SHL PUSH1 0x0 MSTORE PUSH1 0x41 PUSH1 0x4 MSTORE PUSH1 0x24 PUSH1 0x0 REVERT JUMPDEST DUP1 DUP3 ADD DUP1 DUP3 GT ISZERO PUSH2 0x1BE JUMPI PUSH2 0x1BE PUSH2 0xBB7 JUMP JUMPDEST PUSH4 0x4E487B71 PUSH1 0xE0 SHL PUSH1 0x0 MSTORE PUSH1 0x32 PUSH1 0x4 MSTORE PUSH1 0x24 PUSH1 0x0 REVERT JUMPDEST PUSH1 0x0 PUSH1 0x1 DUP3 ADD PUSH2 0xC31 JUMPI PUSH2 0xC31 PUSH2 0xBB7 JUMP JUMPDEST POP PUSH1 0x1 ADD SWAP1 JUMP JUMPDEST DUP1 DUP3 MUL DUP2 ISZERO DUP3 DUP3 DIV DUP5 EQ OR PUSH2 0x1BE JUMPI PUSH2 0x1BE PUSH2 0xBB7 JUMP JUMPDEST PUSH1 0x1 PUSH1 0x1 PUSH1 0xA0 SHL SUB SWAP5 DUP6 AND DUP2 MSTORE SWAP3 SWAP1 SWAP4 AND PUSH1 0x20 DUP4 ADD MSTORE PUSH1 0x40 DUP3 ADD MSTORE PUSH1 0x60 DUP2 ADD SWAP2 SWAP1 SWAP2 MSTORE PUSH1 0xA0 PUSH1 0x80 DUP3 ADD DUP2 SWAP1 MSTORE PUSH1 0x0 SWAP1 DUP3 ADD MSTORE PUSH1 0xC0 ADD SWAP1 JUMP INVALID LOG2 PUSH5 0x6970667358 0x22 SLT KECCAK256 PC PUSH4 0x779B3828 MSIZE BASEFEE 0x4E CALLCODE DIFFICULTY 0xA9 0xE9 0xF6 SWAP11 PUSH19 0x18053342846251B939ACED8CA4DD536B64736F PUSH13 0x63430008110033000000000000 ",
  "sha1": "801e169f92d8eff3d359948f4e57c31150998c83",
  "source": "// SPDX-License-Identifier: MIT\npragma solidity ^0.8.4;\n\nimport \"@openzeppelin/contracts/utils/Counters.sol\";\nimport \"@openzeppelin/contracts/utils/Context.sol\";\nimport \"@openzeppelin/contracts/token/ERC1155/ERC1155.sol\";\nimport \"@openzeppelin/contracts/interfaces/IERC1155Receiver.sol\";\nimport \"@openzeppelin/contracts/security/ReentrancyGuard.sol\";\n\ncontract marketPlaceBoilerPlate is Context, ReentrancyGuard, IERC1155Receiver {\n\tusing Counters for Counters.Counter;\n\tCounters.Counter private _itemIds;\n\tCounters.Counter private _itemsSold;\n\n\t address public owner;\n\n\t constructor() {\n\t\towner = _msgSender();\n\t }\n\n\t struct MarketItem {\n\t\t uint256 itemId;\n\t\t uint256 tokenId;\n\t\t uint256 price;\n\t\t uint256 amount;\n\t\t address nftContract;\n\t\t address payable seller;\n\t }\n\n\t mapping(uint256 => MarketItem) private idToMarketItem;\n\n\t event MarketItemCreated (\n\t\tuint256 indexed itemId,\n\t\tuint256 indexed tokenId,\n\t\tuint256 price,\n\t\tuint256 amount,\n\t\taddress indexed nftContract,\n\t\taddress seller\n\t );\n\n\t event MarketItemSold (\n\t\t uint indexed itemId\n\t\t );\n\n\tfunction supportsInterface(bytes4 interfaceId) public pure override returns (bool) {\n\t\treturn interfaceId == type(IERC165).interfaceId || interfaceId == type(IERC1155Receiver).interfaceId;\n\t}\n\n\tfunction onERC1155Received(\n\t\taddress operator,\n\t\taddress from,\n\t\tuint256 id,\n\t\tuint256 value,\n\t\tbytes calldata data\n\t) external pure returns (bytes4) {\n\t\treturn IERC1155Receiver.onERC1155Received.selector;\n\t}\n\n\tfunction onERC1155BatchReceived(\n\t\taddress operator,\n\t\taddress from,\n\t\tuint256[] calldata ids,\n\t\tuint256[] calldata values,\n\t\tbytes calldata data\n\t) external pure returns (bytes4) {\n\t\trevert(); // this will never happen\n\t}\n\n\tfunction createMarketItem(\n\t\taddress nftContract,\n\t\tuint256 tokenId,\n\t\tuint256 price,\n\t\tuint256 amount\n\t\t) public payable nonReentrant {\n\t\t\trequire(price > 0, \"Price must be greater than 0\");\n\t\t\trequire(amount > 0, \"Amount must be greater than 0\");\n\n\t\t\t_itemIds.increment();\n\n\t\t\tuint256 itemId = _itemIds.current();\n\n\t\t\tidToMarketItem[itemId] =  MarketItem(\n\t\t\t\titemId,\n\t\t\t\ttokenId,\n\t\t\t\tprice,\n\t\t\t\tamount,\n\t\t\t\tnftContract,\n\t\t\t\tpayable(_msgSender())\n\t\t\t);\n\n\t\t\tIERC1155(nftContract).safeTransferFrom(_msgSender(), address(this), tokenId, amount, \"\");\n\t\t\t// IERC1155(nftContract).transferFrom(_msgSender(), address(this), tokenId);\n\n\t\t\temit MarketItemCreated(\n\t\t\t\titemId,\n\t\t\t\ttokenId,\n\t\t\t\tprice,\n\t\t\t\tamount,\n\t\t\t\tnftContract,\n\t\t\t\t_msgSender()\n\t\t\t);\n\t\t}\n\n\tfunction createMarketSale(\n\t\taddress nftContract,\n\t\tuint256 itemId,\n\t\tuint256 amountBought\n\t\t) public payable nonReentrant {\n\t\t\tuint256 price = idToMarketItem[itemId].price;\n\t\t\tuint256 tokenId = idToMarketItem[itemId].tokenId;\n\t\t\tuint256 remainingTokens = idToMarketItem[itemId].amount;\n\t\t\t// bool sold = idToMarketItem[itemId].sold;\n\n\t\t\trequire(remainingTokens != 0, \"This Sale has alredy finnished\");\n\t\t\trequire((amountBought > 0) && (amountBought <= remainingTokens), \"Incorrect token amount\");\n\t\t\trequire(msg.value == (amountBought * price ), \"Please submit the asking price in order to complete the purchase\");\n\n\t\t\temit MarketItemSold(\n\t\t\t\titemId\n\t\t\t\t);\n\n\t\t\tidToMarketItem[itemId].seller.transfer(msg.value);\n\n\t\t\tIERC1155(nftContract).safeTransferFrom(address(this), _msgSender(), tokenId, amountBought, \"\");\n\t\t\t_itemsSold.increment();\n\t\t\tidToMarketItem[itemId].amount -= amountBought;\n\t\t}\n\n\tfunction fetchMarketItems() public view returns (MarketItem[] memory) {\n\t\tuint itemCount = _itemIds.current();\n\t\tuint unsoldItemCount = _itemIds.current() - _itemsSold.current();\n\t\tuint currentIndex = 0;\n\n\t\tMarketItem[] memory items = new MarketItem[](unsoldItemCount);\n\t\tfor (uint i = 0; i < itemCount; i++) {\n\t\t\tif (idToMarketItem[i + 1].amount > 0) {\n\t\t\t\tuint currentId = i + 1;\n\t\t\t\tMarketItem storage currentItem = idToMarketItem[currentId];\n\t\t\t\titems[currentIndex] = currentItem;\n\t\t\t\tcurrentIndex += 1;\n\t\t\t}\n\t\t}\n\t\treturn items;\n\t}\n}\n",
  "sourcePath": "contracts/marketplace.sol",
  "type": "contract"
}